[
  [
    "version",
    3,
    "from",
    [
      {
        "address": "mUewrPVYccx5FJUNbtCeTBtwFMy6Zh7YoJ",
        "txId": "a477af6b2667c29670467e4e0728b685ee07b240235771862318e29ddbe58458",
        "outputIndex": 0,
        "script": "OP_DUP OP_HASH160 20 0x88d9931ea73d60eaf7e5671efc0552b912911f2a OP_EQUALVERIFY OP_CHECKSIG",
        "satoshis": 1020000
      }
    ],
    "to",
    ["mT8Yq8TtEqdQoABQpjrcCCqPJepizAbNMW", 1010000],
    "sign",
    ["cSBnVM4xvxarwGQuAfQFwqDg9k5tErHUHzgWsEfD4zdwUasvqRVY"],
    "serialize",
    "03000000015884e5db9de218238671572340b207ee85b628074e7e467096c267266baf77a4000000006b483045022100cfe1bd9de5f9359e3b4dbd28e257f3dfbc8c072a95338db9f81b7e8c5900129602206847081d4d959bd50470a96357820df7ce7562bb3438e1c94967f14f58dda36001210223078d2942df62c45621d209fab84ea9a7a23346201b7727b9b45a29c4e76f5effffffff0150690f00000000001976a9147821c0a3768aa9d1a37e16cf76002aef5373f1a888ac00000000"
  ],
  [
    "version",
    3,
    "from",
    [
      {
        "txid": "e42447187db5a29d6db161661e4bc66d61c3e499690fe5ea47f87b79ca573986",
        "vout": 1,
        "address": "mGqbK4aeHVzA1wEZWTTuiYm7kpbYBVd2E9",
        "scriptPubKey": "76a914073b7eae2823efa349e3b9155b8a735526463a0f88ac",
        "amount": 0.0108
      }
    ],
    "to",
    ["mNpBfpndgN42fvwg2G8sRcPY4WeSjrd9E1", 500000],
    "to",
    ["mXk1uqNwsBxj9KCyHHBxZjYHYU1yjqPP4W", 570000],
    "sign",
    ["cSQUuwwJBAg6tYQhzqqLWW115D1s5KFZDyhCF2ffrnukZxMK6rNZ"],
    "serialize",
    "0300000001863957ca797bf847eae50f6999e4c3616dc64b1e6661b16d9da2b57d184724e4010000006a4730440220729f455612cbe875165ee3d08394b66f5086f56f0d892488cca99470c2a00d8f02203241c561cb8db2e44fffc4f639eda8c9bcb9055fea4be110212833d76af798bf0121039dd446bbc85db6917f39c0b4c295b0f8cce76d1926fa76d7b84e3f7ff1c5eec5ffffffff0220a10700000000001976a91448c819246ae5645ceecd41fbe1aa6202a0a9b5ca88ac90b20800000000001976a914aab76ba4877d696590d94ea3e02948b55294815188ac00000000"
  ],
  [
    "version",
    3,
    "from",
    [
      [
        {
          "txid": "a9db84566e0fc9351e86337d2828ab281b25ddc06fab798f6d4b5baef48c02b3",
          "vout": 0,
          "address": "mNpBfpndgN42fvwg2G8sRcPY4WeSjrd9E1",
          "scriptPubKey": "76a91448c819246ae5645ceecd41fbe1aa6202a0a9b5ca88ac",
          "satoshis": 500000
        },
        {
          "txid": "a9db84566e0fc9351e86337d2828ab281b25ddc06fab798f6d4b5baef48c02b3",
          "vout": 1,
          "address": "mXk1uqNwsBxj9KCyHHBxZjYHYU1yjqPP4W",
          "scriptPubKey": "76a914aab76ba4877d696590d94ea3e02948b55294815188ac",
          "satoshis": 570000
        }
      ]
    ],
    "to",
    ["mVeAd6DncYVWv1suwULkfiP9YmFtCtnyga", 1060000],
    "sign",
    [
      [
        "cPGbA2C54ZZ1sw4dc2ckBE1WqkdrNSbEV8Tkjhi2p1J15oErdgP2",
        "cSpyve5bXAuyHrNeV9MjTdFz3HLw739yUjjUAUSMe3ppf2qzj2hw"
      ]
    ],
    "serialize",
    "0300000002b3028cf4ae5b4b6d8f79ab6fc0dd251b28ab28287d33861e35c90f6e5684dba9000000006b483045022100d4489732e68f3530ef92aa36b4bfa630d413a8cae6bf034a6fec298c9e7b68ec02207f6c7b7b98ac324c1231abafe5e19f8179483c39597d00dfb1f133fecaddb90f0121030253c73236acf5ea9085d408220141197f6094de07426bd0d32c7a543614fdd7ffffffffb3028cf4ae5b4b6d8f79ab6fc0dd251b28ab28287d33861e35c90f6e5684dba9010000006a4730440220010b83737506b6df4bb38a1e9361300a43492b57b90b99bcbce6e6b2bb69d9240220753b34b97a4ea9d7f5d9c05303874314ff92bb6bbdb413e29d2eccf4ea03bc8d012102977a001a0a7bbfd1f8a647c7d46e13e8f6920635b328390b43b3303977101149ffffffff01a02c1000000000001976a91493abf1e9e4a20c125b93f93ee39efc16b6e4bc4688ac00000000"
  ],
  [
    "version",
    3,
    "from",
    [
      {
        "address": "mGxr9cMPctCGYmYKEDvfBoWfJWHnJkFe2e",
        "txid": "f50e13cecda9a438ebd7df213a2899e42b2461a18d4630ee773d26b4f2688bdc",
        "vout": 1,
        "scriptPubKey": "76a914089acaba6af8b2b4fb4bed3b747ab1e4e60b496588ac",
        "amount": 0.01
      }
    ],
    "to",
    ["meX7YTWf9YouifvmvgxKE2fRMRS2ayaFT5", 990000],
    "sign",
    ["cPwWtDztEgRCMCU8pMQp4HgphvyadrAsYBrCjXUZuDSmnZkyoyNF"],
    "serialize",
    "0300000001dc8b68f2b4263d77ee30468da161242be499283a21dfd7eb38a4a9cdce130ef5010000006a4730440220269922cf4d63fe98bffa285843fc33ce79042206c2249c2ee7b6fb242e9ff82602203a20e1e943388d29fb1496655a2e515aca033965fc0b57f8441dfda6e3e9fe52012103e26b47e7c0d8946954bf9dd4bc7f9e415437eb98271d05f69e78cef8fc6c9a54ffffffff01301b0f00000000001976a914f50f9826ef186074c6fe206cca6b71472ff07ba888ac00000000"
  ],
  [
    "version",
    3,
    "from",
    [
      {
        "address": "3Np39whJyuZYyGyxJqSWEZ4apwau3ng3CS",
        "txid": "073281b2cc94e879aaf30ea2e92947d9827b270015849d3a5b96a89ee15bfa66",
        "vout": 0,
        "script": "522102a54090f8da429873cb9750b0f88b20af96c8885cb5b9bf3d928df11b123c75df210305c04763626e7fe7eaacfe429efcac314f0948c1a8aa491633d44834b982122421030c3fe6699ec9c72cd50676887ae4171ef60df9ef2e943f1dbd2bac7f6c81107e53ae",
        "satoshis": 328512
      },
      [
        "030c3fe6699ec9c72cd50676887ae4171ef60df9ef2e943f1dbd2bac7f6c81107e",
        "02a54090f8da429873cb9750b0f88b20af96c8885cb5b9bf3d928df11b123c75df",
        "0305c04763626e7fe7eaacfe429efcac314f0948c1a8aa491633d44834b9821224"
      ],
      2
    ],
    "to",
    ["3Np39whJyuZYyGyxJqSWEZ4apwau3ng3CS", 320299],
    "sign",
    ["C8ZaNGu4MVSKcjU1CHFspTfsmJAWmgUHUU7xpMuVk837ideNx2xQ"],
    "sign",
    ["CDn3fmfYFo86yVxLVJck7XBpnYsQgVvPf7LYwsq1ymSoyuojgtg8"],
    "serialize",
    "030000000166fa5be19ea8965b3a9d841500277b82d94729e9a20ef3aa79e894ccb281320700000000920047304402201f4ffeb961b14cc8d9beb8cb1c8ffd245cc2116548e08289b3ddcb4574703ec702202d48bf8eb2102f4b5de86f951938459ede5dd0b3fc18ada9abb00f43ca2c25940148304502210098188081d9acb9d2868be5071296da51ce87677d55a208aa1fe295885e24bb1102206054dd13408cfa3d9e4896f6777da27d3520737350eea715060afd1b811dafa801ffffffff012be304000000000017a914e7ae94afe36d1abec153439fc95a26c66e6d65238700000000"
  ],
  [
    "version",
    3,
    "from",
    [
      {
        "address": "3Np39whJyuZYyGyxJqSWEZ4apwau3ng3CS",
        "txid": "afbf98ca4a43db8915d75184b5204fbe71d916482adfe85cb0ed3635764fc220",
        "vout": 0,
        "script": "522102a54090f8da429873cb9750b0f88b20af96c8885cb5b9bf3d928df11b123c75df210305c04763626e7fe7eaacfe429efcac314f0948c1a8aa491633d44834b982122421030c3fe6699ec9c72cd50676887ae4171ef60df9ef2e943f1dbd2bac7f6c81107e53ae",
        "satoshis": 318512
      },
      [
        "030c3fe6699ec9c72cd50676887ae4171ef60df9ef2e943f1dbd2bac7f6c81107e",
        "02a54090f8da429873cb9750b0f88b20af96c8885cb5b9bf3d928df11b123c75df",
        "0305c04763626e7fe7eaacfe429efcac314f0948c1a8aa491633d44834b9821224"
      ],
      2
    ],
    "from",
    [
      {
        "address": "3Np39whJyuZYyGyxJqSWEZ4apwau3ng3CS",
        "txid": "dc2e197ab72f71912c39bc23a42d823a3aa8d469fe65eb591c086e60d14c64a0",
        "vout": 0,
        "script": "522102a54090f8da429873cb9750b0f88b20af96c8885cb5b9bf3d928df11b123c75df210305c04763626e7fe7eaacfe429efcac314f0948c1a8aa491633d44834b982122421030c3fe6699ec9c72cd50676887ae4171ef60df9ef2e943f1dbd2bac7f6c81107e53ae",
        "satoshis": 300299
      },
      [
        "030c3fe6699ec9c72cd50676887ae4171ef60df9ef2e943f1dbd2bac7f6c81107e",
        "02a54090f8da429873cb9750b0f88b20af96c8885cb5b9bf3d928df11b123c75df",
        "0305c04763626e7fe7eaacfe429efcac314f0948c1a8aa491633d44834b9821224"
      ],
      2
    ],
    "to",
    ["3Np39whJyuZYyGyxJqSWEZ4apwau3ng3CS", 150000],
    "to",
    ["3Np39whJyuZYyGyxJqSWEZ4apwau3ng3CS", 160000],
    "change",
    ["3Np39whJyuZYyGyxJqSWEZ4apwau3ng3CS"],
    "sign",
    ["C8ZaNGu4MVSKcjU1CHFspTfsmJAWmgUHUU7xpMuVk837ideNx2xQ"],
    "sign",
    ["CDn3fmfYFo86yVxLVJck7XBpnYsQgVvPf7LYwsq1ymSoyuojgtg8"],
    "serialize",
    "030000000220c24f763536edb05ce8df2a4816d971be4f20b58451d71589db434aca98bfaf000000009100473044022002d6c3fd7ecbf2dd362fc913d1e7ff0cd1f3dcb42da92f68af7863293c9a172202203c2215d26b27c22ab7818991d0ab1f54c6e6bb8872fe5473adaf7600dd3b48490147304402206487c6252b6076a1410f29a5f9dce47d41dbfbea1d8d61854a476d0eb389d2fc0220207a2dcd87935076c1b529d0f7d28cff70b3b803e35f06a7c9f3e8fad67e276d01ffffffffa0644cd1606e081c59eb65fe69d4a83a3a822da423bc392c91712fb77a192edc000000009100473044022030eb09a4c6fe3079551bea08ee91d2ac75fd0697efa27837d288dc2eaeaa701d022031d15bd1eaa8047774c9089942bf15030bae6706dfe70bce7e685ce8557adc110147304402206cec4470b988a380ec9d6297fe9caf1359846df904a212793b1c804e327279be02201835f05c5f1d441ca92d6f779700248ea2a421ff2ed1bce0ac9e4f0544b0118001ffffffff03f04902000000000017a914e7ae94afe36d1abec153439fc95a26c66e6d652387007102000000000017a914e7ae94afe36d1abec153439fc95a26c66e6d65238763b204000000000017a914e7ae94afe36d1abec153439fc95a26c66e6d65238700000000"
  ]
]
